:10000E00F921F980F9DFFA35FA8BFAD6FB22FB6774
:10001E00FBA8FBE8FC22FC5AFC8EFCBFFCEEFD1A92
:10002E00FD44FD6BFD90FDB3FDD4FDF4FE11FE2DE0
:10003E00FE46FE5FFE76FE8DFEA2FEB5FEC7FED923
:10004E00FEEAFEF9FF08FF1615081304100610024B
:10005E000C040E060C020E0410030E010C0609020F
:10006E00090407040C040C0807040C060C020C040B
:10007E0010020E060C020E0410020E020C040C04EA
:10008E0010041304150C15021306100210040C04B0
:10009E000E0410020E020C060902090407040C04D9
:1000AE000C0C15041308100610020C040E060C029C
:1000BE000E04150213061002100413041504150C79
:1000CE0015041308100410060C020E060C020E0482
:1000DE0010060E010C060902090407040C040C0C90
:1000EE0015081304100610020C040E060C020E0462
:1000FE0010060E010C060902090407040C0C0C086C
:10010E00070415021302100213021504150C18042D
:0C011E001304100410060E021004100C54
:0603FC0002150000C10023
:040307008E188F19A4
:10030B00E4F51AF51BC3E51B9519E51A951850363C
:10031B00AE15AF167C007D0A1202B2AD077F01123B
:10032B000256AE15AF167C007D0A1202B27F021286
:10033B0002567F017E001203D0E4F580051BE51BFE
:06034B0070C3051A80BF1B
:010351002289
:10012A001203E520007574562516F58274003515FC
:10013A00F583E493F5170516E51670020515AE1555
:10014A00FF7C007D0A1202B2AD077F01120256AE91
:10015A0015AF167C007D0A1202B27F021202567493
:10016A00562516F58274003515F583E49375F07DEE
:10017A00A4FFAEF01203D00516E51670020515C2EB
:10018A008C7F057E00120307D28CC3E51694D4E552
:10019A00159400408ED200C28C8088AE15AF167CB2
:1001AA00007D0A1202B2AD077F01120256AE15AFE8
:1001BA00167C007D0A1202B27F0212025602012D3B
:03000B0002039A53
:10039A00C0E0C083C082C0D075D000C006E5172572
:1003AA00E0240EF582E43400F583E493FE740193AD
:1003BA00F58AEEF58CB2A5D006D0D0D082D083D003
:0203CA00E0321F
:0C0402000A083F065B4F666D7D077F6FA8
:0403CC007F147E001C
:1003D000EF4E6010007D027CC7DCFEDDFCEF1F707D
:0403E000EF1E80ECA0
:0103E40022F6
:0A040F0000007F067E5DDEFEDFFCCC
:0104190022C0
:10035200E4FB20B0107F14FE1203D020B00712037A
:10036200CC7B0180F620B10D1203CC20B107120321
:10037200CC7B0280F620B20D1203CC20B20712030E
:10038200CC7B0380F620B30D1203CC20B3071203FB
:07039200CC7B0480F6AF03F1
:010399002241
:1003E5005389F0438901758A66758CFCC28DD28C60
:0703F500D2A9D2AFC2B92268
:10025600EF14B40700504D90026B75F003A4C583EC
:1002660025F0C5837302028002028802028C020214
:100276009002029402029C0202A4D2A4D2A3D2A2A9
:100286008022D2A4800AD2A4800ED2A48012C2A454
:10029600D2A3C2A2800EC2A4C2A3D2A28006C2A4C6
:0C02A600C2A3C2A274082DF8E6F5802265
:030000000201CA30
:0C01CA00787FE4F6D8FD75812002021158
:1002B200BC000BBE0029EF8DF084FFADF022E4CC30
:1002C200F875F008EF2FFFEE33FEEC33FCEE9DECF9
:1002D200984005FCEE9DFE0FD5F0E9E4CEFD22ED3F
:1002E200F8F5F0EE8420D21CFEADF075F008EF2F89
:1002F200FFED33FD4007985006D5F0F222C398FD7A
:050302000FD5F0EA2216
:1001D60002012AE493A3F8E493A34003F68001F214
:1001E60008DFF48029E493A3F85407240CC8C3332A
:1001F600C4540F4420C8834004F456800146F6DFF9
:10020600E4800B01020408102040809003FCE47E89
:10021600019360BCA3FF543F30E509541FFEE493ED
:10022600A360010ECF54C025E060A840B8E493A3B4
:10023600FAE493A3F8E493A3C8C582C8CAC583CADF
:10024600F0A3C8C582C8CAC583CADFE9DEE780BE97
:01040E0000ED
:00000001FF
